{
	"contracts/lottery.sol": {
		"Lottery": {
			"abi": [
				{
					"inputs": [],
					"stateMutability": "nonpayable",
					"type": "constructor"
				},
				{
					"inputs": [],
					"name": "getBalance",
					"outputs": [
						{
							"internalType": "uint256",
							"name": "",
							"type": "uint256"
						}
					],
					"stateMutability": "view",
					"type": "function"
				},
				{
					"inputs": [],
					"name": "pickWinner",
					"outputs": [],
					"stateMutability": "nonpayable",
					"type": "function"
				},
				{
					"inputs": [
						{
							"internalType": "uint256",
							"name": "",
							"type": "uint256"
						}
					],
					"name": "players",
					"outputs": [
						{
							"internalType": "address payable",
							"name": "",
							"type": "address"
						}
					],
					"stateMutability": "view",
					"type": "function"
				},
				{
					"inputs": [],
					"name": "random",
					"outputs": [
						{
							"internalType": "uint256",
							"name": "",
							"type": "uint256"
						}
					],
					"stateMutability": "view",
					"type": "function"
				},
				{
					"stateMutability": "payable",
					"type": "receive"
				}
			],
			"devdoc": {
				"kind": "dev",
				"methods": {},
				"version": 1
			},
			"evm": {
				"assembly": "    /* \"contracts/lottery.sol\":76:2639  contract Lottery{... */\n  mstore(0x40, 0x80)\n    /* \"contracts/lottery.sol\":288:339  constructor() {... */\n  callvalue\n  dup1\n  iszero\n  tag_1\n  jumpi\n  0x00\n  dup1\n  revert\ntag_1:\n  pop\n    /* \"contracts/lottery.sol\":321:331  msg.sender */\n  caller\n    /* \"contracts/lottery.sol\":313:320  manager */\n  0x01\n  0x00\n    /* \"contracts/lottery.sol\":313:331  manager=msg.sender */\n  0x0100\n  exp\n  dup2\n  sload\n  dup2\n  0xffffffffffffffffffffffffffffffffffffffff\n  mul\n  not\n  and\n  swap1\n  dup4\n  0xffffffffffffffffffffffffffffffffffffffff\n  and\n  mul\n  or\n  swap1\n  sstore\n  pop\n    /* \"contracts/lottery.sol\":76:2639  contract Lottery{... */\n  dataSize(sub_0)\n  dup1\n  dataOffset(sub_0)\n  0x00\n  codecopy\n  0x00\n  return\nstop\n\nsub_0: assembly {\n        /* \"contracts/lottery.sol\":76:2639  contract Lottery{... */\n      mstore(0x40, 0x80)\n      jumpi(tag_1, lt(calldatasize, 0x04))\n      shr(0xe0, calldataload(0x00))\n      dup1\n      0x12065fe0\n      eq\n      tag_3\n      jumpi\n      dup1\n      0x5d495aea\n      eq\n      tag_4\n      jumpi\n      dup1\n      0x5ec01e4d\n      eq\n      tag_5\n      jumpi\n      dup1\n      0xf71d96cb\n      eq\n      tag_6\n      jumpi\n      jump(tag_2)\n    tag_1:\n      jumpi(tag_2, calldatasize)\n        /* \"contracts/lottery.sol\":450:459  0.1 ether */\n      0x016345785d8a0000\n        /* \"contracts/lottery.sol\":439:448  msg.value */\n      callvalue\n        /* \"contracts/lottery.sol\":439:459  msg.value==0.1 ether */\n      eq\n        /* \"contracts/lottery.sol\":431:505  require(msg.value==0.1 ether,\"More or less than 0.1 ether is not allowed\") */\n      tag_9\n      jumpi\n      mload(0x40)\n      0x08c379a000000000000000000000000000000000000000000000000000000000\n      dup2\n      mstore\n      0x04\n      add\n      tag_10\n      swap1\n      tag_11\n      jump\t// in\n    tag_10:\n      mload(0x40)\n      dup1\n      swap2\n      sub\n      swap1\n      revert\n    tag_9:\n        /* \"contracts/lottery.sol\":594:601  manager */\n      0x01\n      0x00\n      swap1\n      sload\n      swap1\n      0x0100\n      exp\n      swap1\n      div\n      0xffffffffffffffffffffffffffffffffffffffff\n      and\n        /* \"contracts/lottery.sol\":582:601  msg.sender!=manager */\n      0xffffffffffffffffffffffffffffffffffffffff\n      and\n        /* \"contracts/lottery.sol\":582:592  msg.sender */\n      caller\n        /* \"contracts/lottery.sol\":582:601  msg.sender!=manager */\n      0xffffffffffffffffffffffffffffffffffffffff\n      and\n      sub\n        /* \"contracts/lottery.sol\":574:646  require(msg.sender!=manager,\"Manager cannot participate in the lottery\") */\n      tag_12\n      jumpi\n      mload(0x40)\n      0x08c379a000000000000000000000000000000000000000000000000000000000\n      dup2\n      mstore\n      0x04\n      add\n      tag_13\n      swap1\n      tag_14\n      jump\t// in\n    tag_13:\n      mload(0x40)\n      dup1\n      swap2\n      sub\n      swap1\n      revert\n    tag_12:\n        /* \"contracts/lottery.sol\":732:739  players */\n      0x00\n        /* \"contracts/lottery.sol\":753:763  msg.sender */\n      caller\n        /* \"contracts/lottery.sol\":732:765  players.push(payable(msg.sender)) */\n      swap1\n      dup1\n      0x01\n      dup2\n      sload\n      add\n      dup1\n      dup3\n      sstore\n      dup1\n      swap2\n      pop\n      pop\n      0x01\n      swap1\n      sub\n      swap1\n      0x00\n      mstore\n      keccak256(0x00, 0x20)\n      add\n      0x00\n      swap1\n      swap2\n      swap1\n      swap2\n      swap1\n      swap2\n      0x0100\n      exp\n      dup2\n      sload\n      dup2\n      0xffffffffffffffffffffffffffffffffffffffff\n      mul\n      not\n      and\n      swap1\n      dup4\n      0xffffffffffffffffffffffffffffffffffffffff\n      and\n      mul\n      or\n      swap1\n      sstore\n      stop\n        /* \"contracts/lottery.sol\":76:2639  contract Lottery{... */\n    tag_2:\n      0x00\n      dup1\n      revert\n        /* \"contracts/lottery.sol\":849:1079  function getBalance()public view returns(uint){... */\n    tag_3:\n      callvalue\n      dup1\n      iszero\n      tag_16\n      jumpi\n      0x00\n      dup1\n      revert\n    tag_16:\n      pop\n      tag_17\n      tag_18\n      jump\t// in\n    tag_17:\n      mload(0x40)\n      tag_19\n      swap2\n      swap1\n      tag_20\n      jump\t// in\n    tag_19:\n      mload(0x40)\n      dup1\n      swap2\n      sub\n      swap1\n      return\n        /* \"contracts/lottery.sol\":1556:2634  function pickWinner()public{... */\n    tag_4:\n      callvalue\n      dup1\n      iszero\n      tag_21\n      jumpi\n      0x00\n      dup1\n      revert\n    tag_21:\n      pop\n      tag_22\n      tag_23\n      jump\t// in\n    tag_22:\n      stop\n        /* \"contracts/lottery.sol\":1293:1456  function random()public  view  returns (uint){... */\n    tag_5:\n      callvalue\n      dup1\n      iszero\n      tag_24\n      jumpi\n      0x00\n      dup1\n      revert\n    tag_24:\n      pop\n      tag_25\n      tag_26\n      jump\t// in\n    tag_25:\n      mload(0x40)\n      tag_27\n      swap2\n      swap1\n      tag_20\n      jump\t// in\n    tag_27:\n      mload(0x40)\n      dup1\n      swap2\n      sub\n      swap1\n      return\n        /* \"contracts/lottery.sol\":134:167  address payable [] public players */\n    tag_6:\n      callvalue\n      dup1\n      iszero\n      tag_28\n      jumpi\n      0x00\n      dup1\n      revert\n    tag_28:\n      pop\n      tag_29\n      0x04\n      dup1\n      calldatasize\n      sub\n      dup2\n      add\n      swap1\n      tag_30\n      swap2\n      swap1\n      tag_31\n      jump\t// in\n    tag_30:\n      tag_32\n      jump\t// in\n    tag_29:\n      mload(0x40)\n      tag_33\n      swap2\n      swap1\n      tag_34\n      jump\t// in\n    tag_33:\n      mload(0x40)\n      dup1\n      swap2\n      sub\n      swap1\n      return\n        /* \"contracts/lottery.sol\":849:1079  function getBalance()public view returns(uint){... */\n    tag_18:\n        /* \"contracts/lottery.sol\":890:894  uint */\n      0x00\n        /* \"contracts/lottery.sol\":984:991  manager */\n      0x01\n      0x00\n      swap1\n      sload\n      swap1\n      0x0100\n      exp\n      swap1\n      div\n      0xffffffffffffffffffffffffffffffffffffffff\n      and\n        /* \"contracts/lottery.sol\":972:991  msg.sender==manager */\n      0xffffffffffffffffffffffffffffffffffffffff\n      and\n        /* \"contracts/lottery.sol\":972:982  msg.sender */\n      caller\n        /* \"contracts/lottery.sol\":972:991  msg.sender==manager */\n      0xffffffffffffffffffffffffffffffffffffffff\n      and\n      eq\n        /* \"contracts/lottery.sol\":964:1032  require(msg.sender==manager,\"Only manager can call see the balance\") */\n      tag_36\n      jumpi\n      mload(0x40)\n      0x08c379a000000000000000000000000000000000000000000000000000000000\n      dup2\n      mstore\n      0x04\n      add\n      tag_37\n      swap1\n      tag_38\n      jump\t// in\n    tag_37:\n      mload(0x40)\n      dup1\n      swap2\n      sub\n      swap1\n      revert\n    tag_36:\n        /* \"contracts/lottery.sol\":1050:1071  address(this).balance */\n      selfbalance\n        /* \"contracts/lottery.sol\":1043:1071  return address(this).balance */\n      swap1\n      pop\n        /* \"contracts/lottery.sol\":849:1079  function getBalance()public view returns(uint){... */\n      swap1\n      jump\t// out\n        /* \"contracts/lottery.sol\":1556:2634  function pickWinner()public{... */\n    tag_23:\n        /* \"contracts/lottery.sol\":1674:1681  manager */\n      0x01\n      0x00\n      swap1\n      sload\n      swap1\n      0x0100\n      exp\n      swap1\n      div\n      0xffffffffffffffffffffffffffffffffffffffff\n      and\n        /* \"contracts/lottery.sol\":1662:1681  msg.sender==manager */\n      0xffffffffffffffffffffffffffffffffffffffff\n      and\n        /* \"contracts/lottery.sol\":1662:1672  msg.sender */\n      caller\n        /* \"contracts/lottery.sol\":1662:1681  msg.sender==manager */\n      0xffffffffffffffffffffffffffffffffffffffff\n      and\n      eq\n        /* \"contracts/lottery.sol\":1654:1719  require(msg.sender==manager,\"Only manager can call the function\") */\n      tag_40\n      jumpi\n      mload(0x40)\n      0x08c379a000000000000000000000000000000000000000000000000000000000\n      dup2\n      mstore\n      0x04\n      add\n      tag_41\n      swap1\n      tag_42\n      jump\t// in\n    tag_41:\n      mload(0x40)\n      dup1\n      swap2\n      sub\n      swap1\n      revert\n    tag_40:\n        /* \"contracts/lottery.sol\":1833:1834  3 */\n      0x03\n        /* \"contracts/lottery.sol\":1817:1824  players */\n      0x00\n        /* \"contracts/lottery.sol\":1817:1831  players.length */\n      dup1\n      sload\n      swap1\n      pop\n        /* \"contracts/lottery.sol\":1817:1834  players.length>=3 */\n      lt\n      iszero\n        /* \"contracts/lottery.sol\":1809:1891  require(players.length>=3,\"There should be at least 3 players to pick the winner\") */\n      tag_43\n      jumpi\n      mload(0x40)\n      0x08c379a000000000000000000000000000000000000000000000000000000000\n      dup2\n      mstore\n      0x04\n      add\n      tag_44\n      swap1\n      tag_45\n      jump\t// in\n    tag_44:\n      mload(0x40)\n      dup1\n      swap2\n      sub\n      swap1\n      revert\n    tag_43:\n        /* \"contracts/lottery.sol\":1902:1908  uint r */\n      0x00\n        /* \"contracts/lottery.sol\":1910:1918  random() */\n      tag_46\n        /* \"contracts/lottery.sol\":1910:1916  random */\n      tag_26\n        /* \"contracts/lottery.sol\":1910:1918  random() */\n      jump\t// in\n    tag_46:\n        /* \"contracts/lottery.sol\":1902:1918  uint r =random() */\n      swap1\n      pop\n        /* \"contracts/lottery.sol\":1929:1951  address payable winner */\n      0x00\n        /* \"contracts/lottery.sol\":2014:2024  uint index */\n      dup1\n        /* \"contracts/lottery.sol\":2030:2037  players */\n      0x00\n        /* \"contracts/lottery.sol\":2030:2044  players.length */\n      dup1\n      sload\n      swap1\n      pop\n        /* \"contracts/lottery.sol\":2026:2027  r */\n      dup4\n        /* \"contracts/lottery.sol\":2026:2044  r % players.length */\n      tag_47\n      swap2\n      swap1\n      tag_48\n      jump\t// in\n    tag_47:\n        /* \"contracts/lottery.sol\":2014:2044  uint index =r % players.length */\n      swap1\n      pop\n        /* \"contracts/lottery.sol\":2063:2070  players */\n      0x00\n        /* \"contracts/lottery.sol\":2071:2076  index */\n      dup2\n        /* \"contracts/lottery.sol\":2063:2077  players[index] */\n      dup2\n      sload\n      dup2\n      lt\n      tag_49\n      jumpi\n      tag_50\n      tag_51\n      jump\t// in\n    tag_50:\n    tag_49:\n      swap1\n      0x00\n      mstore\n      keccak256(0x00, 0x20)\n      add\n      0x00\n      swap1\n      sload\n      swap1\n      0x0100\n      exp\n      swap1\n      div\n      0xffffffffffffffffffffffffffffffffffffffff\n      and\n        /* \"contracts/lottery.sol\":2055:2077  winner= players[index] */\n      swap2\n      pop\n        /* \"contracts/lottery.sol\":2174:2189  uint managerFee */\n      0x00\n        /* \"contracts/lottery.sol\":2215:2218  100 */\n      0x64\n        /* \"contracts/lottery.sol\":2208:2210  10 */\n      0x0a\n        /* \"contracts/lottery.sol\":2193:2205  getBalance() */\n      tag_53\n        /* \"contracts/lottery.sol\":2193:2203  getBalance */\n      tag_18\n        /* \"contracts/lottery.sol\":2193:2205  getBalance() */\n      jump\t// in\n    tag_53:\n        /* \"contracts/lottery.sol\":2193:2210  getBalance() * 10 */\n      tag_54\n      swap2\n      swap1\n      tag_55\n      jump\t// in\n    tag_54:\n        /* \"contracts/lottery.sol\":2192:2218  (getBalance() * 10 ) / 100 */\n      tag_56\n      swap2\n      swap1\n      tag_57\n      jump\t// in\n    tag_56:\n        /* \"contracts/lottery.sol\":2174:2218  uint managerFee = (getBalance() * 10 ) / 100 */\n      swap1\n      pop\n        /* \"contracts/lottery.sol\":2262:2278  uint winnerPrize */\n      0x00\n        /* \"contracts/lottery.sol\":2304:2307  100 */\n      0x64\n        /* \"contracts/lottery.sol\":2297:2299  90 */\n      0x5a\n        /* \"contracts/lottery.sol\":2282:2294  getBalance() */\n      tag_58\n        /* \"contracts/lottery.sol\":2282:2292  getBalance */\n      tag_18\n        /* \"contracts/lottery.sol\":2282:2294  getBalance() */\n      jump\t// in\n    tag_58:\n        /* \"contracts/lottery.sol\":2282:2299  getBalance() * 90 */\n      tag_59\n      swap2\n      swap1\n      tag_55\n      jump\t// in\n    tag_59:\n        /* \"contracts/lottery.sol\":2281:2307  (getBalance() * 90 ) / 100 */\n      tag_60\n      swap2\n      swap1\n      tag_57\n      jump\t// in\n    tag_60:\n        /* \"contracts/lottery.sol\":2262:2307  uint winnerPrize = (getBalance() * 90 ) / 100 */\n      swap1\n      pop\n        /* \"contracts/lottery.sol\":2394:2400  winner */\n      dup4\n        /* \"contracts/lottery.sol\":2394:2409  winner.transfer */\n      0xffffffffffffffffffffffffffffffffffffffff\n      and\n        /* \"contracts/lottery.sol\":2394:2422  winner.transfer(winnerPrize) */\n      0x08fc\n        /* \"contracts/lottery.sol\":2410:2421  winnerPrize */\n      dup3\n        /* \"contracts/lottery.sol\":2394:2422  winner.transfer(winnerPrize) */\n      swap1\n      dup2\n      iszero\n      mul\n      swap1\n      mload(0x40)\n      0x00\n      mload(0x40)\n      dup1\n      dup4\n      sub\n      dup2\n      dup6\n      dup9\n      dup9\n      call\n      swap4\n      pop\n      pop\n      pop\n      pop\n      iszero\n      dup1\n      iszero\n      tag_62\n      jumpi\n      returndatasize\n      0x00\n      dup1\n      returndatacopy\n      revert(0x00, returndatasize)\n    tag_62:\n      pop\n        /* \"contracts/lottery.sol\":2513:2520  manager */\n      0x01\n      0x00\n      swap1\n      sload\n      swap1\n      0x0100\n      exp\n      swap1\n      div\n      0xffffffffffffffffffffffffffffffffffffffff\n      and\n        /* \"contracts/lottery.sol\":2505:2530  payable(manager).transfer */\n      0xffffffffffffffffffffffffffffffffffffffff\n      and\n        /* \"contracts/lottery.sol\":2505:2542  payable(manager).transfer(managerFee) */\n      0x08fc\n        /* \"contracts/lottery.sol\":2531:2541  managerFee */\n      dup4\n        /* \"contracts/lottery.sol\":2505:2542  payable(manager).transfer(managerFee) */\n      swap1\n      dup2\n      iszero\n      mul\n      swap1\n      mload(0x40)\n      0x00\n      mload(0x40)\n      dup1\n      dup4\n      sub\n      dup2\n      dup6\n      dup9\n      dup9\n      call\n      swap4\n      pop\n      pop\n      pop\n      pop\n      iszero\n      dup1\n      iszero\n      tag_64\n      jumpi\n      returndatasize\n      0x00\n      dup1\n      returndatacopy\n      revert(0x00, returndatasize)\n    tag_64:\n      pop\n        /* \"contracts/lottery.sol\":2624:2625  0 */\n      0x00\n        /* \"contracts/lottery.sol\":2601:2626  new address payable [](0) */\n      0xffffffffffffffff\n      dup2\n      gt\n      iszero\n      tag_65\n      jumpi\n      tag_66\n      tag_67\n      jump\t// in\n    tag_66:\n    tag_65:\n      mload(0x40)\n      swap1\n      dup1\n      dup3\n      mstore\n      dup1\n      0x20\n      mul\n      0x20\n      add\n      dup3\n      add\n      0x40\n      mstore\n      dup1\n      iszero\n      tag_68\n      jumpi\n      dup2\n      0x20\n      add\n      0x20\n      dup3\n      mul\n      dup1\n      calldatasize\n      dup4\n      calldatacopy\n      dup1\n      dup3\n      add\n      swap2\n      pop\n      pop\n      swap1\n      pop\n    tag_68:\n      pop\n        /* \"contracts/lottery.sol\":2593:2600  players */\n      0x00\n        /* \"contracts/lottery.sol\":2593:2626  players=new address payable [](0) */\n      swap1\n      dup1\n      mload\n      swap1\n      0x20\n      add\n      swap1\n      tag_69\n      swap3\n      swap2\n      swap1\n      tag_70\n      jump\t// in\n    tag_69:\n      pop\n        /* \"contracts/lottery.sol\":1583:2634  {... */\n      pop\n      pop\n      pop\n      pop\n      pop\n        /* \"contracts/lottery.sol\":1556:2634  function pickWinner()public{... */\n      jump\t// out\n        /* \"contracts/lottery.sol\":1293:1456  function random()public  view  returns (uint){... */\n    tag_26:\n        /* \"contracts/lottery.sol\":1333:1337  uint */\n      0x00\n        /* \"contracts/lottery.sol\":1398:1414  block.difficulty */\n      prevrandao\n        /* \"contracts/lottery.sol\":1415:1430  block.timestamp */\n      timestamp\n        /* \"contracts/lottery.sol\":1431:1438  players */\n      0x00\n        /* \"contracts/lottery.sol\":1431:1445  players.length */\n      dup1\n      sload\n      swap1\n      pop\n        /* \"contracts/lottery.sol\":1381:1446  abi.encodePacked(block.difficulty,block.timestamp,players.length) */\n      add(0x20, mload(0x40))\n      tag_72\n      swap4\n      swap3\n      swap2\n      swap1\n      tag_73\n      jump\t// in\n    tag_72:\n      mload(0x40)\n      0x20\n      dup2\n      dup4\n      sub\n      sub\n      dup2\n      mstore\n      swap1\n      0x40\n      mstore\n        /* \"contracts/lottery.sol\":1371:1447  keccak256(abi.encodePacked(block.difficulty,block.timestamp,players.length)) */\n      dup1\n      mload\n      swap1\n      0x20\n      add\n      keccak256\n        /* \"contracts/lottery.sol\":1366:1448  uint(keccak256(abi.encodePacked(block.difficulty,block.timestamp,players.length))) */\n      0x00\n      shr\n        /* \"contracts/lottery.sol\":1359:1448  return uint(keccak256(abi.encodePacked(block.difficulty,block.timestamp,players.length))) */\n      swap1\n      pop\n        /* \"contracts/lottery.sol\":1293:1456  function random()public  view  returns (uint){... */\n      swap1\n      jump\t// out\n        /* \"contracts/lottery.sol\":134:167  address payable [] public players */\n    tag_32:\n      0x00\n      dup2\n      dup2\n      sload\n      dup2\n      lt\n      tag_74\n      jumpi\n      0x00\n      dup1\n      revert\n    tag_74:\n      swap1\n      0x00\n      mstore\n      keccak256(0x00, 0x20)\n      add\n      0x00\n      swap2\n      pop\n      sload\n      swap1\n      0x0100\n      exp\n      swap1\n      div\n      0xffffffffffffffffffffffffffffffffffffffff\n      and\n      dup2\n      jump\t// out\n    tag_70:\n      dup3\n      dup1\n      sload\n      dup3\n      dup3\n      sstore\n      swap1\n      0x00\n      mstore\n      keccak256(0x00, 0x20)\n      swap1\n      dup2\n      add\n      swap3\n      dup3\n      iszero\n      tag_76\n      jumpi\n      swap2\n      0x20\n      mul\n      dup3\n      add\n    tag_77:\n      dup3\n      dup2\n      gt\n      iszero\n      tag_78\n      jumpi\n      dup3\n      mload\n      dup3\n      exp(0x0100, 0x00)\n      dup2\n      sload\n      dup2\n      0xffffffffffffffffffffffffffffffffffffffff\n      mul\n      not\n      and\n      swap1\n      dup4\n      0xffffffffffffffffffffffffffffffffffffffff\n      and\n      mul\n      or\n      swap1\n      sstore\n      pop\n      swap2\n      0x20\n      add\n      swap2\n      swap1\n      0x01\n      add\n      swap1\n      jump(tag_77)\n    tag_78:\n    tag_76:\n      pop\n      swap1\n      pop\n      tag_79\n      swap2\n      swap1\n      tag_80\n      jump\t// in\n    tag_79:\n      pop\n      swap1\n      jump\t// out\n    tag_80:\n    tag_81:\n      dup1\n      dup3\n      gt\n      iszero\n      tag_82\n      jumpi\n      0x00\n      dup2\n      0x00\n      swap1\n      sstore\n      pop\n      0x01\n      add\n      jump(tag_81)\n    tag_82:\n      pop\n      swap1\n      jump\t// out\n        /* \"#utility.yul\":7:176   */\n    tag_83:\n        /* \"#utility.yul\":91:102   */\n      0x00\n        /* \"#utility.yul\":125:131   */\n      dup3\n        /* \"#utility.yul\":120:123   */\n      dup3\n        /* \"#utility.yul\":113:132   */\n      mstore\n        /* \"#utility.yul\":165:169   */\n      0x20\n        /* \"#utility.yul\":160:163   */\n      dup3\n        /* \"#utility.yul\":156:170   */\n      add\n        /* \"#utility.yul\":141:170   */\n      swap1\n      pop\n        /* \"#utility.yul\":7:176   */\n      swap3\n      swap2\n      pop\n      pop\n      jump\t// out\n        /* \"#utility.yul\":182:411   */\n    tag_84:\n        /* \"#utility.yul\":322:356   */\n      0x4d6f7265206f72206c657373207468616e20302e31206574686572206973206e\n        /* \"#utility.yul\":318:319   */\n      0x00\n        /* \"#utility.yul\":310:316   */\n      dup3\n        /* \"#utility.yul\":306:320   */\n      add\n        /* \"#utility.yul\":299:357   */\n      mstore\n        /* \"#utility.yul\":391:403   */\n      0x6f7420616c6c6f77656400000000000000000000000000000000000000000000\n        /* \"#utility.yul\":386:388   */\n      0x20\n        /* \"#utility.yul\":378:384   */\n      dup3\n        /* \"#utility.yul\":374:389   */\n      add\n        /* \"#utility.yul\":367:404   */\n      mstore\n        /* \"#utility.yul\":182:411   */\n      pop\n      jump\t// out\n        /* \"#utility.yul\":417:783   */\n    tag_85:\n        /* \"#utility.yul\":559:562   */\n      0x00\n        /* \"#utility.yul\":580:647   */\n      tag_112\n        /* \"#utility.yul\":644:646   */\n      0x2a\n        /* \"#utility.yul\":639:642   */\n      dup4\n        /* \"#utility.yul\":580:647   */\n      tag_83\n      jump\t// in\n    tag_112:\n        /* \"#utility.yul\":573:647   */\n      swap2\n      pop\n        /* \"#utility.yul\":656:749   */\n      tag_113\n        /* \"#utility.yul\":745:748   */\n      dup3\n        /* \"#utility.yul\":656:749   */\n      tag_84\n      jump\t// in\n    tag_113:\n        /* \"#utility.yul\":774:776   */\n      0x40\n        /* \"#utility.yul\":769:772   */\n      dup3\n        /* \"#utility.yul\":765:777   */\n      add\n        /* \"#utility.yul\":758:777   */\n      swap1\n      pop\n        /* \"#utility.yul\":417:783   */\n      swap2\n      swap1\n      pop\n      jump\t// out\n        /* \"#utility.yul\":789:1208   */\n    tag_11:\n        /* \"#utility.yul\":955:959   */\n      0x00\n        /* \"#utility.yul\":993:995   */\n      0x20\n        /* \"#utility.yul\":982:991   */\n      dup3\n        /* \"#utility.yul\":978:996   */\n      add\n        /* \"#utility.yul\":970:996   */\n      swap1\n      pop\n        /* \"#utility.yul\":1042:1051   */\n      dup2\n        /* \"#utility.yul\":1036:1040   */\n      dup2\n        /* \"#utility.yul\":1032:1052   */\n      sub\n        /* \"#utility.yul\":1028:1029   */\n      0x00\n        /* \"#utility.yul\":1017:1026   */\n      dup4\n        /* \"#utility.yul\":1013:1030   */\n      add\n        /* \"#utility.yul\":1006:1053   */\n      mstore\n        /* \"#utility.yul\":1070:1201   */\n      tag_115\n        /* \"#utility.yul\":1196:1200   */\n      dup2\n        /* \"#utility.yul\":1070:1201   */\n      tag_85\n      jump\t// in\n    tag_115:\n        /* \"#utility.yul\":1062:1201   */\n      swap1\n      pop\n        /* \"#utility.yul\":789:1208   */\n      swap2\n      swap1\n      pop\n      jump\t// out\n        /* \"#utility.yul\":1214:1442   */\n    tag_86:\n        /* \"#utility.yul\":1354:1388   */\n      0x4d616e616765722063616e6e6f7420706172746963697061746520696e207468\n        /* \"#utility.yul\":1350:1351   */\n      0x00\n        /* \"#utility.yul\":1342:1348   */\n      dup3\n        /* \"#utility.yul\":1338:1352   */\n      add\n        /* \"#utility.yul\":1331:1389   */\n      mstore\n        /* \"#utility.yul\":1423:1434   */\n      0x65206c6f74746572790000000000000000000000000000000000000000000000\n        /* \"#utility.yul\":1418:1420   */\n      0x20\n        /* \"#utility.yul\":1410:1416   */\n      dup3\n        /* \"#utility.yul\":1406:1421   */\n      add\n        /* \"#utility.yul\":1399:1435   */\n      mstore\n        /* \"#utility.yul\":1214:1442   */\n      pop\n      jump\t// out\n        /* \"#utility.yul\":1448:1814   */\n    tag_87:\n        /* \"#utility.yul\":1590:1593   */\n      0x00\n        /* \"#utility.yul\":1611:1678   */\n      tag_118\n        /* \"#utility.yul\":1675:1677   */\n      0x29\n        /* \"#utility.yul\":1670:1673   */\n      dup4\n        /* \"#utility.yul\":1611:1678   */\n      tag_83\n      jump\t// in\n    tag_118:\n        /* \"#utility.yul\":1604:1678   */\n      swap2\n      pop\n        /* \"#utility.yul\":1687:1780   */\n      tag_119\n        /* \"#utility.yul\":1776:1779   */\n      dup3\n        /* \"#utility.yul\":1687:1780   */\n      tag_86\n      jump\t// in\n    tag_119:\n        /* \"#utility.yul\":1805:1807   */\n      0x40\n        /* \"#utility.yul\":1800:1803   */\n      dup3\n        /* \"#utility.yul\":1796:1808   */\n      add\n        /* \"#utility.yul\":1789:1808   */\n      swap1\n      pop\n        /* \"#utility.yul\":1448:1814   */\n      swap2\n      swap1\n      pop\n      jump\t// out\n        /* \"#utility.yul\":1820:2239   */\n    tag_14:\n        /* \"#utility.yul\":1986:1990   */\n      0x00\n        /* \"#utility.yul\":2024:2026   */\n      0x20\n        /* \"#utility.yul\":2013:2022   */\n      dup3\n        /* \"#utility.yul\":2009:2027   */\n      add\n        /* \"#utility.yul\":2001:2027   */\n      swap1\n      pop\n        /* \"#utility.yul\":2073:2082   */\n      dup2\n        /* \"#utility.yul\":2067:2071   */\n      dup2\n        /* \"#utility.yul\":2063:2083   */\n      sub\n        /* \"#utility.yul\":2059:2060   */\n      0x00\n        /* \"#utility.yul\":2048:2057   */\n      dup4\n        /* \"#utility.yul\":2044:2061   */\n      add\n        /* \"#utility.yul\":2037:2084   */\n      mstore\n        /* \"#utility.yul\":2101:2232   */\n      tag_121\n        /* \"#utility.yul\":2227:2231   */\n      dup2\n        /* \"#utility.yul\":2101:2232   */\n      tag_87\n      jump\t// in\n    tag_121:\n        /* \"#utility.yul\":2093:2232   */\n      swap1\n      pop\n        /* \"#utility.yul\":1820:2239   */\n      swap2\n      swap1\n      pop\n      jump\t// out\n        /* \"#utility.yul\":2245:2322   */\n    tag_88:\n        /* \"#utility.yul\":2282:2289   */\n      0x00\n        /* \"#utility.yul\":2311:2316   */\n      dup2\n        /* \"#utility.yul\":2300:2316   */\n      swap1\n      pop\n        /* \"#utility.yul\":2245:2322   */\n      swap2\n      swap1\n      pop\n      jump\t// out\n        /* \"#utility.yul\":2328:2446   */\n    tag_89:\n        /* \"#utility.yul\":2415:2439   */\n      tag_124\n        /* \"#utility.yul\":2433:2438   */\n      dup2\n        /* \"#utility.yul\":2415:2439   */\n      tag_88\n      jump\t// in\n    tag_124:\n        /* \"#utility.yul\":2410:2413   */\n      dup3\n        /* \"#utility.yul\":2403:2440   */\n      mstore\n        /* \"#utility.yul\":2328:2446   */\n      pop\n      pop\n      jump\t// out\n        /* \"#utility.yul\":2452:2674   */\n    tag_20:\n        /* \"#utility.yul\":2545:2549   */\n      0x00\n        /* \"#utility.yul\":2583:2585   */\n      0x20\n        /* \"#utility.yul\":2572:2581   */\n      dup3\n        /* \"#utility.yul\":2568:2586   */\n      add\n        /* \"#utility.yul\":2560:2586   */\n      swap1\n      pop\n        /* \"#utility.yul\":2596:2667   */\n      tag_126\n        /* \"#utility.yul\":2664:2665   */\n      0x00\n        /* \"#utility.yul\":2653:2662   */\n      dup4\n        /* \"#utility.yul\":2649:2666   */\n      add\n        /* \"#utility.yul\":2640:2646   */\n      dup5\n        /* \"#utility.yul\":2596:2667   */\n      tag_89\n      jump\t// in\n    tag_126:\n        /* \"#utility.yul\":2452:2674   */\n      swap3\n      swap2\n      pop\n      pop\n      jump\t// out\n        /* \"#utility.yul\":2761:2878   */\n    tag_91:\n        /* \"#utility.yul\":2870:2871   */\n      0x00\n        /* \"#utility.yul\":2867:2868   */\n      dup1\n        /* \"#utility.yul\":2860:2872   */\n      revert\n        /* \"#utility.yul\":3007:3129   */\n    tag_93:\n        /* \"#utility.yul\":3080:3104   */\n      tag_131\n        /* \"#utility.yul\":3098:3103   */\n      dup2\n        /* \"#utility.yul\":3080:3104   */\n      tag_88\n      jump\t// in\n    tag_131:\n        /* \"#utility.yul\":3073:3078   */\n      dup2\n        /* \"#utility.yul\":3070:3105   */\n      eq\n        /* \"#utility.yul\":3060:3123   */\n      tag_132\n      jumpi\n        /* \"#utility.yul\":3119:3120   */\n      0x00\n        /* \"#utility.yul\":3116:3117   */\n      dup1\n        /* \"#utility.yul\":3109:3121   */\n      revert\n        /* \"#utility.yul\":3060:3123   */\n    tag_132:\n        /* \"#utility.yul\":3007:3129   */\n      pop\n      jump\t// out\n        /* \"#utility.yul\":3135:3274   */\n    tag_94:\n        /* \"#utility.yul\":3181:3186   */\n      0x00\n        /* \"#utility.yul\":3219:3225   */\n      dup2\n        /* \"#utility.yul\":3206:3226   */\n      calldataload\n        /* \"#utility.yul\":3197:3226   */\n      swap1\n      pop\n        /* \"#utility.yul\":3235:3268   */\n      tag_134\n        /* \"#utility.yul\":3262:3267   */\n      dup2\n        /* \"#utility.yul\":3235:3268   */\n      tag_93\n      jump\t// in\n    tag_134:\n        /* \"#utility.yul\":3135:3274   */\n      swap3\n      swap2\n      pop\n      pop\n      jump\t// out\n        /* \"#utility.yul\":3280:3609   */\n    tag_31:\n        /* \"#utility.yul\":3339:3345   */\n      0x00\n        /* \"#utility.yul\":3388:3390   */\n      0x20\n        /* \"#utility.yul\":3376:3385   */\n      dup3\n        /* \"#utility.yul\":3367:3374   */\n      dup5\n        /* \"#utility.yul\":3363:3386   */\n      sub\n        /* \"#utility.yul\":3359:3391   */\n      slt\n        /* \"#utility.yul\":3356:3475   */\n      iszero\n      tag_136\n      jumpi\n        /* \"#utility.yul\":3394:3473   */\n      tag_137\n      tag_91\n      jump\t// in\n    tag_137:\n        /* \"#utility.yul\":3356:3475   */\n    tag_136:\n        /* \"#utility.yul\":3514:3515   */\n      0x00\n        /* \"#utility.yul\":3539:3592   */\n      tag_138\n        /* \"#utility.yul\":3584:3591   */\n      dup5\n        /* \"#utility.yul\":3575:3581   */\n      dup3\n        /* \"#utility.yul\":3564:3573   */\n      dup6\n        /* \"#utility.yul\":3560:3582   */\n      add\n        /* \"#utility.yul\":3539:3592   */\n      tag_94\n      jump\t// in\n    tag_138:\n        /* \"#utility.yul\":3529:3592   */\n      swap2\n      pop\n        /* \"#utility.yul\":3485:3602   */\n      pop\n        /* \"#utility.yul\":3280:3609   */\n      swap3\n      swap2\n      pop\n      pop\n      jump\t// out\n        /* \"#utility.yul\":3615:3741   */\n    tag_95:\n        /* \"#utility.yul\":3652:3659   */\n      0x00\n        /* \"#utility.yul\":3692:3734   */\n      0xffffffffffffffffffffffffffffffffffffffff\n        /* \"#utility.yul\":3685:3690   */\n      dup3\n        /* \"#utility.yul\":3681:3735   */\n      and\n        /* \"#utility.yul\":3670:3735   */\n      swap1\n      pop\n        /* \"#utility.yul\":3615:3741   */\n      swap2\n      swap1\n      pop\n      jump\t// out\n        /* \"#utility.yul\":3747:3851   */\n    tag_96:\n        /* \"#utility.yul\":3792:3799   */\n      0x00\n        /* \"#utility.yul\":3821:3845   */\n      tag_141\n        /* \"#utility.yul\":3839:3844   */\n      dup3\n        /* \"#utility.yul\":3821:3845   */\n      tag_95\n      jump\t// in\n    tag_141:\n        /* \"#utility.yul\":3810:3845   */\n      swap1\n      pop\n        /* \"#utility.yul\":3747:3851   */\n      swap2\n      swap1\n      pop\n      jump\t// out\n        /* \"#utility.yul\":3857:3999   */\n    tag_97:\n        /* \"#utility.yul\":3960:3992   */\n      tag_143\n        /* \"#utility.yul\":3986:3991   */\n      dup2\n        /* \"#utility.yul\":3960:3992   */\n      tag_96\n      jump\t// in\n    tag_143:\n        /* \"#utility.yul\":3955:3958   */\n      dup3\n        /* \"#utility.yul\":3948:3993   */\n      mstore\n        /* \"#utility.yul\":3857:3999   */\n      pop\n      pop\n      jump\t// out\n        /* \"#utility.yul\":4005:4259   */\n    tag_34:\n        /* \"#utility.yul\":4114:4118   */\n      0x00\n        /* \"#utility.yul\":4152:4154   */\n      0x20\n        /* \"#utility.yul\":4141:4150   */\n      dup3\n        /* \"#utility.yul\":4137:4155   */\n      add\n        /* \"#utility.yul\":4129:4155   */\n      swap1\n      pop\n        /* \"#utility.yul\":4165:4252   */\n      tag_145\n        /* \"#utility.yul\":4249:4250   */\n      0x00\n        /* \"#utility.yul\":4238:4247   */\n      dup4\n        /* \"#utility.yul\":4234:4251   */\n      add\n        /* \"#utility.yul\":4225:4231   */\n      dup5\n        /* \"#utility.yul\":4165:4252   */\n      tag_97\n      jump\t// in\n    tag_145:\n        /* \"#utility.yul\":4005:4259   */\n      swap3\n      swap2\n      pop\n      pop\n      jump\t// out\n        /* \"#utility.yul\":4265:4489   */\n    tag_98:\n        /* \"#utility.yul\":4405:4439   */\n      0x4f6e6c79206d616e616765722063616e2063616c6c2073656520746865206261\n        /* \"#utility.yul\":4401:4402   */\n      0x00\n        /* \"#utility.yul\":4393:4399   */\n      dup3\n        /* \"#utility.yul\":4389:4403   */\n      add\n        /* \"#utility.yul\":4382:4440   */\n      mstore\n        /* \"#utility.yul\":4474:4481   */\n      0x6c616e6365000000000000000000000000000000000000000000000000000000\n        /* \"#utility.yul\":4469:4471   */\n      0x20\n        /* \"#utility.yul\":4461:4467   */\n      dup3\n        /* \"#utility.yul\":4457:4472   */\n      add\n        /* \"#utility.yul\":4450:4482   */\n      mstore\n        /* \"#utility.yul\":4265:4489   */\n      pop\n      jump\t// out\n        /* \"#utility.yul\":4495:4861   */\n    tag_99:\n        /* \"#utility.yul\":4637:4640   */\n      0x00\n        /* \"#utility.yul\":4658:4725   */\n      tag_148\n        /* \"#utility.yul\":4722:4724   */\n      0x25\n        /* \"#utility.yul\":4717:4720   */\n      dup4\n        /* \"#utility.yul\":4658:4725   */\n      tag_83\n      jump\t// in\n    tag_148:\n        /* \"#utility.yul\":4651:4725   */\n      swap2\n      pop\n        /* \"#utility.yul\":4734:4827   */\n      tag_149\n        /* \"#utility.yul\":4823:4826   */\n      dup3\n        /* \"#utility.yul\":4734:4827   */\n      tag_98\n      jump\t// in\n    tag_149:\n        /* \"#utility.yul\":4852:4854   */\n      0x40\n        /* \"#utility.yul\":4847:4850   */\n      dup3\n        /* \"#utility.yul\":4843:4855   */\n      add\n        /* \"#utility.yul\":4836:4855   */\n      swap1\n      pop\n        /* \"#utility.yul\":4495:4861   */\n      swap2\n      swap1\n      pop\n      jump\t// out\n        /* \"#utility.yul\":4867:5286   */\n    tag_38:\n        /* \"#utility.yul\":5033:5037   */\n      0x00\n        /* \"#utility.yul\":5071:5073   */\n      0x20\n        /* \"#utility.yul\":5060:5069   */\n      dup3\n        /* \"#utility.yul\":5056:5074   */\n      add\n        /* \"#utility.yul\":5048:5074   */\n      swap1\n      pop\n        /* \"#utility.yul\":5120:5129   */\n      dup2\n        /* \"#utility.yul\":5114:5118   */\n      dup2\n        /* \"#utility.yul\":5110:5130   */\n      sub\n        /* \"#utility.yul\":5106:5107   */\n      0x00\n        /* \"#utility.yul\":5095:5104   */\n      dup4\n        /* \"#utility.yul\":5091:5108   */\n      add\n        /* \"#utility.yul\":5084:5131   */\n      mstore\n        /* \"#utility.yul\":5148:5279   */\n      tag_151\n        /* \"#utility.yul\":5274:5278   */\n      dup2\n        /* \"#utility.yul\":5148:5279   */\n      tag_99\n      jump\t// in\n    tag_151:\n        /* \"#utility.yul\":5140:5279   */\n      swap1\n      pop\n        /* \"#utility.yul\":4867:5286   */\n      swap2\n      swap1\n      pop\n      jump\t// out\n        /* \"#utility.yul\":5292:5513   */\n    tag_100:\n        /* \"#utility.yul\":5432:5466   */\n      0x4f6e6c79206d616e616765722063616e2063616c6c207468652066756e637469\n        /* \"#utility.yul\":5428:5429   */\n      0x00\n        /* \"#utility.yul\":5420:5426   */\n      dup3\n        /* \"#utility.yul\":5416:5430   */\n      add\n        /* \"#utility.yul\":5409:5467   */\n      mstore\n        /* \"#utility.yul\":5501:5505   */\n      0x6f6e000000000000000000000000000000000000000000000000000000000000\n        /* \"#utility.yul\":5496:5498   */\n      0x20\n        /* \"#utility.yul\":5488:5494   */\n      dup3\n        /* \"#utility.yul\":5484:5499   */\n      add\n        /* \"#utility.yul\":5477:5506   */\n      mstore\n        /* \"#utility.yul\":5292:5513   */\n      pop\n      jump\t// out\n        /* \"#utility.yul\":5519:5885   */\n    tag_101:\n        /* \"#utility.yul\":5661:5664   */\n      0x00\n        /* \"#utility.yul\":5682:5749   */\n      tag_154\n        /* \"#utility.yul\":5746:5748   */\n      0x22\n        /* \"#utility.yul\":5741:5744   */\n      dup4\n        /* \"#utility.yul\":5682:5749   */\n      tag_83\n      jump\t// in\n    tag_154:\n        /* \"#utility.yul\":5675:5749   */\n      swap2\n      pop\n        /* \"#utility.yul\":5758:5851   */\n      tag_155\n        /* \"#utility.yul\":5847:5850   */\n      dup3\n        /* \"#utility.yul\":5758:5851   */\n      tag_100\n      jump\t// in\n    tag_155:\n        /* \"#utility.yul\":5876:5878   */\n      0x40\n        /* \"#utility.yul\":5871:5874   */\n      dup3\n        /* \"#utility.yul\":5867:5879   */\n      add\n        /* \"#utility.yul\":5860:5879   */\n      swap1\n      pop\n        /* \"#utility.yul\":5519:5885   */\n      swap2\n      swap1\n      pop\n      jump\t// out\n        /* \"#utility.yul\":5891:6310   */\n    tag_42:\n        /* \"#utility.yul\":6057:6061   */\n      0x00\n        /* \"#utility.yul\":6095:6097   */\n      0x20\n        /* \"#utility.yul\":6084:6093   */\n      dup3\n        /* \"#utility.yul\":6080:6098   */\n      add\n        /* \"#utility.yul\":6072:6098   */\n      swap1\n      pop\n        /* \"#utility.yul\":6144:6153   */\n      dup2\n        /* \"#utility.yul\":6138:6142   */\n      dup2\n        /* \"#utility.yul\":6134:6154   */\n      sub\n        /* \"#utility.yul\":6130:6131   */\n      0x00\n        /* \"#utility.yul\":6119:6128   */\n      dup4\n        /* \"#utility.yul\":6115:6132   */\n      add\n        /* \"#utility.yul\":6108:6155   */\n      mstore\n        /* \"#utility.yul\":6172:6303   */\n      tag_157\n        /* \"#utility.yul\":6298:6302   */\n      dup2\n        /* \"#utility.yul\":6172:6303   */\n      tag_101\n      jump\t// in\n    tag_157:\n        /* \"#utility.yul\":6164:6303   */\n      swap1\n      pop\n        /* \"#utility.yul\":5891:6310   */\n      swap2\n      swap1\n      pop\n      jump\t// out\n        /* \"#utility.yul\":6316:6556   */\n    tag_102:\n        /* \"#utility.yul\":6456:6490   */\n      0x54686572652073686f756c64206265206174206c65617374203320706c617965\n        /* \"#utility.yul\":6452:6453   */\n      0x00\n        /* \"#utility.yul\":6444:6450   */\n      dup3\n        /* \"#utility.yul\":6440:6454   */\n      add\n        /* \"#utility.yul\":6433:6491   */\n      mstore\n        /* \"#utility.yul\":6525:6548   */\n      0x727320746f207069636b207468652077696e6e65720000000000000000000000\n        /* \"#utility.yul\":6520:6522   */\n      0x20\n        /* \"#utility.yul\":6512:6518   */\n      dup3\n        /* \"#utility.yul\":6508:6523   */\n      add\n        /* \"#utility.yul\":6501:6549   */\n      mstore\n        /* \"#utility.yul\":6316:6556   */\n      pop\n      jump\t// out\n        /* \"#utility.yul\":6562:6928   */\n    tag_103:\n        /* \"#utility.yul\":6704:6707   */\n      0x00\n        /* \"#utility.yul\":6725:6792   */\n      tag_160\n        /* \"#utility.yul\":6789:6791   */\n      0x35\n        /* \"#utility.yul\":6784:6787   */\n      dup4\n        /* \"#utility.yul\":6725:6792   */\n      tag_83\n      jump\t// in\n    tag_160:\n        /* \"#utility.yul\":6718:6792   */\n      swap2\n      pop\n        /* \"#utility.yul\":6801:6894   */\n      tag_161\n        /* \"#utility.yul\":6890:6893   */\n      dup3\n        /* \"#utility.yul\":6801:6894   */\n      tag_102\n      jump\t// in\n    tag_161:\n        /* \"#utility.yul\":6919:6921   */\n      0x40\n        /* \"#utility.yul\":6914:6917   */\n      dup3\n        /* \"#utility.yul\":6910:6922   */\n      add\n        /* \"#utility.yul\":6903:6922   */\n      swap1\n      pop\n        /* \"#utility.yul\":6562:6928   */\n      swap2\n      swap1\n      pop\n      jump\t// out\n        /* \"#utility.yul\":6934:7353   */\n    tag_45:\n        /* \"#utility.yul\":7100:7104   */\n      0x00\n        /* \"#utility.yul\":7138:7140   */\n      0x20\n        /* \"#utility.yul\":7127:7136   */\n      dup3\n        /* \"#utility.yul\":7123:7141   */\n      add\n        /* \"#utility.yul\":7115:7141   */\n      swap1\n      pop\n        /* \"#utility.yul\":7187:7196   */\n      dup2\n        /* \"#utility.yul\":7181:7185   */\n      dup2\n        /* \"#utility.yul\":7177:7197   */\n      sub\n        /* \"#utility.yul\":7173:7174   */\n      0x00\n        /* \"#utility.yul\":7162:7171   */\n      dup4\n        /* \"#utility.yul\":7158:7175   */\n      add\n        /* \"#utility.yul\":7151:7198   */\n      mstore\n        /* \"#utility.yul\":7215:7346   */\n      tag_163\n        /* \"#utility.yul\":7341:7345   */\n      dup2\n        /* \"#utility.yul\":7215:7346   */\n      tag_103\n      jump\t// in\n    tag_163:\n        /* \"#utility.yul\":7207:7346   */\n      swap1\n      pop\n        /* \"#utility.yul\":6934:7353   */\n      swap2\n      swap1\n      pop\n      jump\t// out\n        /* \"#utility.yul\":7359:7539   */\n    tag_104:\n        /* \"#utility.yul\":7407:7484   */\n      0x4e487b7100000000000000000000000000000000000000000000000000000000\n        /* \"#utility.yul\":7404:7405   */\n      0x00\n        /* \"#utility.yul\":7397:7485   */\n      mstore\n        /* \"#utility.yul\":7504:7508   */\n      0x12\n        /* \"#utility.yul\":7501:7502   */\n      0x04\n        /* \"#utility.yul\":7494:7509   */\n      mstore\n        /* \"#utility.yul\":7528:7532   */\n      0x24\n        /* \"#utility.yul\":7525:7526   */\n      0x00\n        /* \"#utility.yul\":7518:7533   */\n      revert\n        /* \"#utility.yul\":7545:7721   */\n    tag_48:\n        /* \"#utility.yul\":7577:7578   */\n      0x00\n        /* \"#utility.yul\":7594:7614   */\n      tag_166\n        /* \"#utility.yul\":7612:7613   */\n      dup3\n        /* \"#utility.yul\":7594:7614   */\n      tag_88\n      jump\t// in\n    tag_166:\n        /* \"#utility.yul\":7589:7614   */\n      swap2\n      pop\n        /* \"#utility.yul\":7628:7648   */\n      tag_167\n        /* \"#utility.yul\":7646:7647   */\n      dup4\n        /* \"#utility.yul\":7628:7648   */\n      tag_88\n      jump\t// in\n    tag_167:\n        /* \"#utility.yul\":7623:7648   */\n      swap3\n      pop\n        /* \"#utility.yul\":7667:7668   */\n      dup3\n        /* \"#utility.yul\":7657:7692   */\n      tag_168\n      jumpi\n        /* \"#utility.yul\":7672:7690   */\n      tag_169\n      tag_104\n      jump\t// in\n    tag_169:\n        /* \"#utility.yul\":7657:7692   */\n    tag_168:\n        /* \"#utility.yul\":7713:7714   */\n      dup3\n        /* \"#utility.yul\":7710:7711   */\n      dup3\n        /* \"#utility.yul\":7706:7715   */\n      mod\n        /* \"#utility.yul\":7701:7715   */\n      swap1\n      pop\n        /* \"#utility.yul\":7545:7721   */\n      swap3\n      swap2\n      pop\n      pop\n      jump\t// out\n        /* \"#utility.yul\":7727:7907   */\n    tag_51:\n        /* \"#utility.yul\":7775:7852   */\n      0x4e487b7100000000000000000000000000000000000000000000000000000000\n        /* \"#utility.yul\":7772:7773   */\n      0x00\n        /* \"#utility.yul\":7765:7853   */\n      mstore\n        /* \"#utility.yul\":7872:7876   */\n      0x32\n        /* \"#utility.yul\":7869:7870   */\n      0x04\n        /* \"#utility.yul\":7862:7877   */\n      mstore\n        /* \"#utility.yul\":7896:7900   */\n      0x24\n        /* \"#utility.yul\":7893:7894   */\n      0x00\n        /* \"#utility.yul\":7886:7901   */\n      revert\n        /* \"#utility.yul\":7913:8093   */\n    tag_105:\n        /* \"#utility.yul\":7961:8038   */\n      0x4e487b7100000000000000000000000000000000000000000000000000000000\n        /* \"#utility.yul\":7958:7959   */\n      0x00\n        /* \"#utility.yul\":7951:8039   */\n      mstore\n        /* \"#utility.yul\":8058:8062   */\n      0x11\n        /* \"#utility.yul\":8055:8056   */\n      0x04\n        /* \"#utility.yul\":8048:8063   */\n      mstore\n        /* \"#utility.yul\":8082:8086   */\n      0x24\n        /* \"#utility.yul\":8079:8080   */\n      0x00\n        /* \"#utility.yul\":8072:8087   */\n      revert\n        /* \"#utility.yul\":8099:8509   */\n    tag_55:\n        /* \"#utility.yul\":8139:8146   */\n      0x00\n        /* \"#utility.yul\":8162:8182   */\n      tag_173\n        /* \"#utility.yul\":8180:8181   */\n      dup3\n        /* \"#utility.yul\":8162:8182   */\n      tag_88\n      jump\t// in\n    tag_173:\n        /* \"#utility.yul\":8157:8182   */\n      swap2\n      pop\n        /* \"#utility.yul\":8196:8216   */\n      tag_174\n        /* \"#utility.yul\":8214:8215   */\n      dup4\n        /* \"#utility.yul\":8196:8216   */\n      tag_88\n      jump\t// in\n    tag_174:\n        /* \"#utility.yul\":8191:8216   */\n      swap3\n      pop\n        /* \"#utility.yul\":8251:8252   */\n      dup3\n        /* \"#utility.yul\":8248:8249   */\n      dup3\n        /* \"#utility.yul\":8244:8253   */\n      mul\n        /* \"#utility.yul\":8273:8303   */\n      tag_175\n        /* \"#utility.yul\":8291:8302   */\n      dup2\n        /* \"#utility.yul\":8273:8303   */\n      tag_88\n      jump\t// in\n    tag_175:\n        /* \"#utility.yul\":8262:8303   */\n      swap2\n      pop\n        /* \"#utility.yul\":8452:8453   */\n      dup3\n        /* \"#utility.yul\":8443:8450   */\n      dup3\n        /* \"#utility.yul\":8439:8454   */\n      div\n        /* \"#utility.yul\":8436:8437   */\n      dup5\n        /* \"#utility.yul\":8433:8455   */\n      eq\n        /* \"#utility.yul\":8413:8414   */\n      dup4\n        /* \"#utility.yul\":8406:8415   */\n      iszero\n        /* \"#utility.yul\":8386:8469   */\n      or\n        /* \"#utility.yul\":8363:8502   */\n      tag_176\n      jumpi\n        /* \"#utility.yul\":8482:8500   */\n      tag_177\n      tag_105\n      jump\t// in\n    tag_177:\n        /* \"#utility.yul\":8363:8502   */\n    tag_176:\n        /* \"#utility.yul\":8147:8509   */\n      pop\n        /* \"#utility.yul\":8099:8509   */\n      swap3\n      swap2\n      pop\n      pop\n      jump\t// out\n        /* \"#utility.yul\":8515:8700   */\n    tag_57:\n        /* \"#utility.yul\":8555:8556   */\n      0x00\n        /* \"#utility.yul\":8572:8592   */\n      tag_179\n        /* \"#utility.yul\":8590:8591   */\n      dup3\n        /* \"#utility.yul\":8572:8592   */\n      tag_88\n      jump\t// in\n    tag_179:\n        /* \"#utility.yul\":8567:8592   */\n      swap2\n      pop\n        /* \"#utility.yul\":8606:8626   */\n      tag_180\n        /* \"#utility.yul\":8624:8625   */\n      dup4\n        /* \"#utility.yul\":8606:8626   */\n      tag_88\n      jump\t// in\n    tag_180:\n        /* \"#utility.yul\":8601:8626   */\n      swap3\n      pop\n        /* \"#utility.yul\":8645:8646   */\n      dup3\n        /* \"#utility.yul\":8635:8670   */\n      tag_181\n      jumpi\n        /* \"#utility.yul\":8650:8668   */\n      tag_182\n      tag_104\n      jump\t// in\n    tag_182:\n        /* \"#utility.yul\":8635:8670   */\n    tag_181:\n        /* \"#utility.yul\":8692:8693   */\n      dup3\n        /* \"#utility.yul\":8689:8690   */\n      dup3\n        /* \"#utility.yul\":8685:8694   */\n      div\n        /* \"#utility.yul\":8680:8694   */\n      swap1\n      pop\n        /* \"#utility.yul\":8515:8700   */\n      swap3\n      swap2\n      pop\n      pop\n      jump\t// out\n        /* \"#utility.yul\":8706:8886   */\n    tag_67:\n        /* \"#utility.yul\":8754:8831   */\n      0x4e487b7100000000000000000000000000000000000000000000000000000000\n        /* \"#utility.yul\":8751:8752   */\n      0x00\n        /* \"#utility.yul\":8744:8832   */\n      mstore\n        /* \"#utility.yul\":8851:8855   */\n      0x41\n        /* \"#utility.yul\":8848:8849   */\n      0x04\n        /* \"#utility.yul\":8841:8856   */\n      mstore\n        /* \"#utility.yul\":8875:8879   */\n      0x24\n        /* \"#utility.yul\":8872:8873   */\n      0x00\n        /* \"#utility.yul\":8865:8880   */\n      revert\n        /* \"#utility.yul\":8892:8971   */\n    tag_106:\n        /* \"#utility.yul\":8931:8938   */\n      0x00\n        /* \"#utility.yul\":8960:8965   */\n      dup2\n        /* \"#utility.yul\":8949:8965   */\n      swap1\n      pop\n        /* \"#utility.yul\":8892:8971   */\n      swap2\n      swap1\n      pop\n      jump\t// out\n        /* \"#utility.yul\":8977:9134   */\n    tag_107:\n        /* \"#utility.yul\":9082:9127   */\n      tag_186\n        /* \"#utility.yul\":9102:9126   */\n      tag_187\n        /* \"#utility.yul\":9120:9125   */\n      dup3\n        /* \"#utility.yul\":9102:9126   */\n      tag_88\n      jump\t// in\n    tag_187:\n        /* \"#utility.yul\":9082:9127   */\n      tag_106\n      jump\t// in\n    tag_186:\n        /* \"#utility.yul\":9077:9080   */\n      dup3\n        /* \"#utility.yul\":9070:9128   */\n      mstore\n        /* \"#utility.yul\":8977:9134   */\n      pop\n      pop\n      jump\t// out\n        /* \"#utility.yul\":9140:9678   */\n    tag_73:\n        /* \"#utility.yul\":9308:9311   */\n      0x00\n        /* \"#utility.yul\":9323:9398   */\n      tag_189\n        /* \"#utility.yul\":9394:9397   */\n      dup3\n        /* \"#utility.yul\":9385:9391   */\n      dup7\n        /* \"#utility.yul\":9323:9398   */\n      tag_107\n      jump\t// in\n    tag_189:\n        /* \"#utility.yul\":9423:9425   */\n      0x20\n        /* \"#utility.yul\":9418:9421   */\n      dup3\n        /* \"#utility.yul\":9414:9426   */\n      add\n        /* \"#utility.yul\":9407:9426   */\n      swap2\n      pop\n        /* \"#utility.yul\":9436:9511   */\n      tag_190\n        /* \"#utility.yul\":9507:9510   */\n      dup3\n        /* \"#utility.yul\":9498:9504   */\n      dup6\n        /* \"#utility.yul\":9436:9511   */\n      tag_107\n      jump\t// in\n    tag_190:\n        /* \"#utility.yul\":9536:9538   */\n      0x20\n        /* \"#utility.yul\":9531:9534   */\n      dup3\n        /* \"#utility.yul\":9527:9539   */\n      add\n        /* \"#utility.yul\":9520:9539   */\n      swap2\n      pop\n        /* \"#utility.yul\":9549:9624   */\n      tag_191\n        /* \"#utility.yul\":9620:9623   */\n      dup3\n        /* \"#utility.yul\":9611:9617   */\n      dup5\n        /* \"#utility.yul\":9549:9624   */\n      tag_107\n      jump\t// in\n    tag_191:\n        /* \"#utility.yul\":9649:9651   */\n      0x20\n        /* \"#utility.yul\":9644:9647   */\n      dup3\n        /* \"#utility.yul\":9640:9652   */\n      add\n        /* \"#utility.yul\":9633:9652   */\n      swap2\n      pop\n        /* \"#utility.yul\":9669:9672   */\n      dup2\n        /* \"#utility.yul\":9662:9672   */\n      swap1\n      pop\n        /* \"#utility.yul\":9140:9678   */\n      swap5\n      swap4\n      pop\n      pop\n      pop\n      pop\n      jump\t// out\n\n    auxdata: 0xa2646970667358221220ff13e66cf2a8163809d2cc9595be3c1ecadcc6328a73f0da17d0dc8ea504ffb364736f6c63430008160033\n}\n",
				"bytecode": {
					"linkReferences": {},
					"object": "608060405234801561000f575f80fd5b503360015f6101000a81548173ffffffffffffffffffffffffffffffffffffffff021916908373ffffffffffffffffffffffffffffffffffffffff160217905550610bf98061005d5f395ff3fe608060405260043610610042575f3560e01c806312065fe0146101845780635d495aea146101ae5780635ec01e4d146101c4578063f71d96cb146101ee57610180565b366101805767016345785d8a00003414610091576040517f08c379a0000000000000000000000000000000000000000000000000000000008152600401610088906106da565b60405180910390fd5b60015f9054906101000a900473ffffffffffffffffffffffffffffffffffffffff1673ffffffffffffffffffffffffffffffffffffffff163373ffffffffffffffffffffffffffffffffffffffff1603610120576040517f08c379a000000000000000000000000000000000000000000000000000000000815260040161011790610768565b60405180910390fd5b5f33908060018154018082558091505060019003905f5260205f20015f9091909190916101000a81548173ffffffffffffffffffffffffffffffffffffffff021916908373ffffffffffffffffffffffffffffffffffffffff1602179055005b5f80fd5b34801561018f575f80fd5b5061019861022a565b6040516101a5919061079e565b60405180910390f35b3480156101b9575f80fd5b506101c26102c0565b005b3480156101cf575f80fd5b506101d8610547565b6040516101e5919061079e565b60405180910390f35b3480156101f9575f80fd5b50610214600480360381019061020f91906107e5565b61057e565b604051610221919061084f565b60405180910390f35b5f60015f9054906101000a900473ffffffffffffffffffffffffffffffffffffffff1673ffffffffffffffffffffffffffffffffffffffff163373ffffffffffffffffffffffffffffffffffffffff16146102ba576040517f08c379a00000000000000000000000000000000000000000000000000000000081526004016102b1906108d8565b60405180910390fd5b47905090565b60015f9054906101000a900473ffffffffffffffffffffffffffffffffffffffff1673ffffffffffffffffffffffffffffffffffffffff163373ffffffffffffffffffffffffffffffffffffffff161461034f576040517f08c379a000000000000000000000000000000000000000000000000000000000815260040161034690610966565b60405180910390fd5b60035f805490501015610397576040517f08c379a000000000000000000000000000000000000000000000000000000000815260040161038e906109f4565b60405180910390fd5b5f6103a0610547565b90505f805f80549050836103b49190610a3f565b90505f81815481106103c9576103c8610a6f565b5b905f5260205f20015f9054906101000a900473ffffffffffffffffffffffffffffffffffffffff1691505f6064600a61040061022a565b61040a9190610ac9565b6104149190610b0a565b90505f6064605a61042361022a565b61042d9190610ac9565b6104379190610b0a565b90508373ffffffffffffffffffffffffffffffffffffffff166108fc8290811502906040515f60405180830381858888f1935050505015801561047c573d5f803e3d5ffd5b5060015f9054906101000a900473ffffffffffffffffffffffffffffffffffffffff1673ffffffffffffffffffffffffffffffffffffffff166108fc8390811502906040515f60405180830381858888f193505050501580156104e1573d5f803e3d5ffd5b505f67ffffffffffffffff8111156104fc576104fb610b3a565b5b60405190808252806020026020018201604052801561052a5781602001602082028036833780820191505090505b505f908051906020019061053f9291906105b8565b505050505050565b5f44425f8054905060405160200161056193929190610b87565b604051602081830303815290604052805190602001205f1c905090565b5f818154811061058c575f80fd5b905f5260205f20015f915054906101000a900473ffffffffffffffffffffffffffffffffffffffff1681565b828054828255905f5260205f2090810192821561062e579160200282015b8281111561062d578251825f6101000a81548173ffffffffffffffffffffffffffffffffffffffff021916908373ffffffffffffffffffffffffffffffffffffffff160217905550916020019190600101906105d6565b5b50905061063b919061063f565b5090565b5b80821115610656575f815f905550600101610640565b5090565b5f82825260208201905092915050565b7f4d6f7265206f72206c657373207468616e20302e31206574686572206973206e5f8201527f6f7420616c6c6f77656400000000000000000000000000000000000000000000602082015250565b5f6106c4602a8361065a565b91506106cf8261066a565b604082019050919050565b5f6020820190508181035f8301526106f1816106b8565b9050919050565b7f4d616e616765722063616e6e6f7420706172746963697061746520696e2074685f8201527f65206c6f74746572790000000000000000000000000000000000000000000000602082015250565b5f61075260298361065a565b915061075d826106f8565b604082019050919050565b5f6020820190508181035f83015261077f81610746565b9050919050565b5f819050919050565b61079881610786565b82525050565b5f6020820190506107b15f83018461078f565b92915050565b5f80fd5b6107c481610786565b81146107ce575f80fd5b50565b5f813590506107df816107bb565b92915050565b5f602082840312156107fa576107f96107b7565b5b5f610807848285016107d1565b91505092915050565b5f73ffffffffffffffffffffffffffffffffffffffff82169050919050565b5f61083982610810565b9050919050565b6108498161082f565b82525050565b5f6020820190506108625f830184610840565b92915050565b7f4f6e6c79206d616e616765722063616e2063616c6c20736565207468652062615f8201527f6c616e6365000000000000000000000000000000000000000000000000000000602082015250565b5f6108c260258361065a565b91506108cd82610868565b604082019050919050565b5f6020820190508181035f8301526108ef816108b6565b9050919050565b7f4f6e6c79206d616e616765722063616e2063616c6c207468652066756e6374695f8201527f6f6e000000000000000000000000000000000000000000000000000000000000602082015250565b5f61095060228361065a565b915061095b826108f6565b604082019050919050565b5f6020820190508181035f83015261097d81610944565b9050919050565b7f54686572652073686f756c64206265206174206c65617374203320706c6179655f8201527f727320746f207069636b207468652077696e6e65720000000000000000000000602082015250565b5f6109de60358361065a565b91506109e982610984565b604082019050919050565b5f6020820190508181035f830152610a0b816109d2565b9050919050565b7f4e487b71000000000000000000000000000000000000000000000000000000005f52601260045260245ffd5b5f610a4982610786565b9150610a5483610786565b925082610a6457610a63610a12565b5b828206905092915050565b7f4e487b71000000000000000000000000000000000000000000000000000000005f52603260045260245ffd5b7f4e487b71000000000000000000000000000000000000000000000000000000005f52601160045260245ffd5b5f610ad382610786565b9150610ade83610786565b9250828202610aec81610786565b91508282048414831517610b0357610b02610a9c565b5b5092915050565b5f610b1482610786565b9150610b1f83610786565b925082610b2f57610b2e610a12565b5b828204905092915050565b7f4e487b71000000000000000000000000000000000000000000000000000000005f52604160045260245ffd5b5f819050919050565b610b81610b7c82610786565b610b67565b82525050565b5f610b928286610b70565b602082019150610ba28285610b70565b602082019150610bb28284610b70565b60208201915081905094935050505056fea2646970667358221220ff13e66cf2a8163809d2cc9595be3c1ecadcc6328a73f0da17d0dc8ea504ffb364736f6c63430008160033",
					"opcodes": "PUSH1 0x80 PUSH1 0x40 MSTORE CALLVALUE DUP1 ISZERO PUSH2 0xF JUMPI PUSH0 DUP1 REVERT JUMPDEST POP CALLER PUSH1 0x1 PUSH0 PUSH2 0x100 EXP DUP2 SLOAD DUP2 PUSH20 0xFFFFFFFFFFFFFFFFFFFFFFFFFFFFFFFFFFFFFFFF MUL NOT AND SWAP1 DUP4 PUSH20 0xFFFFFFFFFFFFFFFFFFFFFFFFFFFFFFFFFFFFFFFF AND MUL OR SWAP1 SSTORE POP PUSH2 0xBF9 DUP1 PUSH2 0x5D PUSH0 CODECOPY PUSH0 RETURN INVALID PUSH1 0x80 PUSH1 0x40 MSTORE PUSH1 0x4 CALLDATASIZE LT PUSH2 0x42 JUMPI PUSH0 CALLDATALOAD PUSH1 0xE0 SHR DUP1 PUSH4 0x12065FE0 EQ PUSH2 0x184 JUMPI DUP1 PUSH4 0x5D495AEA EQ PUSH2 0x1AE JUMPI DUP1 PUSH4 0x5EC01E4D EQ PUSH2 0x1C4 JUMPI DUP1 PUSH4 0xF71D96CB EQ PUSH2 0x1EE JUMPI PUSH2 0x180 JUMP JUMPDEST CALLDATASIZE PUSH2 0x180 JUMPI PUSH8 0x16345785D8A0000 CALLVALUE EQ PUSH2 0x91 JUMPI PUSH1 0x40 MLOAD PUSH32 0x8C379A000000000000000000000000000000000000000000000000000000000 DUP2 MSTORE PUSH1 0x4 ADD PUSH2 0x88 SWAP1 PUSH2 0x6DA JUMP JUMPDEST PUSH1 0x40 MLOAD DUP1 SWAP2 SUB SWAP1 REVERT JUMPDEST PUSH1 0x1 PUSH0 SWAP1 SLOAD SWAP1 PUSH2 0x100 EXP SWAP1 DIV PUSH20 0xFFFFFFFFFFFFFFFFFFFFFFFFFFFFFFFFFFFFFFFF AND PUSH20 0xFFFFFFFFFFFFFFFFFFFFFFFFFFFFFFFFFFFFFFFF AND CALLER PUSH20 0xFFFFFFFFFFFFFFFFFFFFFFFFFFFFFFFFFFFFFFFF AND SUB PUSH2 0x120 JUMPI PUSH1 0x40 MLOAD PUSH32 0x8C379A000000000000000000000000000000000000000000000000000000000 DUP2 MSTORE PUSH1 0x4 ADD PUSH2 0x117 SWAP1 PUSH2 0x768 JUMP JUMPDEST PUSH1 0x40 MLOAD DUP1 SWAP2 SUB SWAP1 REVERT JUMPDEST PUSH0 CALLER SWAP1 DUP1 PUSH1 0x1 DUP2 SLOAD ADD DUP1 DUP3 SSTORE DUP1 SWAP2 POP POP PUSH1 0x1 SWAP1 SUB SWAP1 PUSH0 MSTORE PUSH1 0x20 PUSH0 KECCAK256 ADD PUSH0 SWAP1 SWAP2 SWAP1 SWAP2 SWAP1 SWAP2 PUSH2 0x100 EXP DUP2 SLOAD DUP2 PUSH20 0xFFFFFFFFFFFFFFFFFFFFFFFFFFFFFFFFFFFFFFFF MUL NOT AND SWAP1 DUP4 PUSH20 0xFFFFFFFFFFFFFFFFFFFFFFFFFFFFFFFFFFFFFFFF AND MUL OR SWAP1 SSTORE STOP JUMPDEST PUSH0 DUP1 REVERT JUMPDEST CALLVALUE DUP1 ISZERO PUSH2 0x18F JUMPI PUSH0 DUP1 REVERT JUMPDEST POP PUSH2 0x198 PUSH2 0x22A JUMP JUMPDEST PUSH1 0x40 MLOAD PUSH2 0x1A5 SWAP2 SWAP1 PUSH2 0x79E JUMP JUMPDEST PUSH1 0x40 MLOAD DUP1 SWAP2 SUB SWAP1 RETURN JUMPDEST CALLVALUE DUP1 ISZERO PUSH2 0x1B9 JUMPI PUSH0 DUP1 REVERT JUMPDEST POP PUSH2 0x1C2 PUSH2 0x2C0 JUMP JUMPDEST STOP JUMPDEST CALLVALUE DUP1 ISZERO PUSH2 0x1CF JUMPI PUSH0 DUP1 REVERT JUMPDEST POP PUSH2 0x1D8 PUSH2 0x547 JUMP JUMPDEST PUSH1 0x40 MLOAD PUSH2 0x1E5 SWAP2 SWAP1 PUSH2 0x79E JUMP JUMPDEST PUSH1 0x40 MLOAD DUP1 SWAP2 SUB SWAP1 RETURN JUMPDEST CALLVALUE DUP1 ISZERO PUSH2 0x1F9 JUMPI PUSH0 DUP1 REVERT JUMPDEST POP PUSH2 0x214 PUSH1 0x4 DUP1 CALLDATASIZE SUB DUP2 ADD SWAP1 PUSH2 0x20F SWAP2 SWAP1 PUSH2 0x7E5 JUMP JUMPDEST PUSH2 0x57E JUMP JUMPDEST PUSH1 0x40 MLOAD PUSH2 0x221 SWAP2 SWAP1 PUSH2 0x84F JUMP JUMPDEST PUSH1 0x40 MLOAD DUP1 SWAP2 SUB SWAP1 RETURN JUMPDEST PUSH0 PUSH1 0x1 PUSH0 SWAP1 SLOAD SWAP1 PUSH2 0x100 EXP SWAP1 DIV PUSH20 0xFFFFFFFFFFFFFFFFFFFFFFFFFFFFFFFFFFFFFFFF AND PUSH20 0xFFFFFFFFFFFFFFFFFFFFFFFFFFFFFFFFFFFFFFFF AND CALLER PUSH20 0xFFFFFFFFFFFFFFFFFFFFFFFFFFFFFFFFFFFFFFFF AND EQ PUSH2 0x2BA JUMPI PUSH1 0x40 MLOAD PUSH32 0x8C379A000000000000000000000000000000000000000000000000000000000 DUP2 MSTORE PUSH1 0x4 ADD PUSH2 0x2B1 SWAP1 PUSH2 0x8D8 JUMP JUMPDEST PUSH1 0x40 MLOAD DUP1 SWAP2 SUB SWAP1 REVERT JUMPDEST SELFBALANCE SWAP1 POP SWAP1 JUMP JUMPDEST PUSH1 0x1 PUSH0 SWAP1 SLOAD SWAP1 PUSH2 0x100 EXP SWAP1 DIV PUSH20 0xFFFFFFFFFFFFFFFFFFFFFFFFFFFFFFFFFFFFFFFF AND PUSH20 0xFFFFFFFFFFFFFFFFFFFFFFFFFFFFFFFFFFFFFFFF AND CALLER PUSH20 0xFFFFFFFFFFFFFFFFFFFFFFFFFFFFFFFFFFFFFFFF AND EQ PUSH2 0x34F JUMPI PUSH1 0x40 MLOAD PUSH32 0x8C379A000000000000000000000000000000000000000000000000000000000 DUP2 MSTORE PUSH1 0x4 ADD PUSH2 0x346 SWAP1 PUSH2 0x966 JUMP JUMPDEST PUSH1 0x40 MLOAD DUP1 SWAP2 SUB SWAP1 REVERT JUMPDEST PUSH1 0x3 PUSH0 DUP1 SLOAD SWAP1 POP LT ISZERO PUSH2 0x397 JUMPI PUSH1 0x40 MLOAD PUSH32 0x8C379A000000000000000000000000000000000000000000000000000000000 DUP2 MSTORE PUSH1 0x4 ADD PUSH2 0x38E SWAP1 PUSH2 0x9F4 JUMP JUMPDEST PUSH1 0x40 MLOAD DUP1 SWAP2 SUB SWAP1 REVERT JUMPDEST PUSH0 PUSH2 0x3A0 PUSH2 0x547 JUMP JUMPDEST SWAP1 POP PUSH0 DUP1 PUSH0 DUP1 SLOAD SWAP1 POP DUP4 PUSH2 0x3B4 SWAP2 SWAP1 PUSH2 0xA3F JUMP JUMPDEST SWAP1 POP PUSH0 DUP2 DUP2 SLOAD DUP2 LT PUSH2 0x3C9 JUMPI PUSH2 0x3C8 PUSH2 0xA6F JUMP JUMPDEST JUMPDEST SWAP1 PUSH0 MSTORE PUSH1 0x20 PUSH0 KECCAK256 ADD PUSH0 SWAP1 SLOAD SWAP1 PUSH2 0x100 EXP SWAP1 DIV PUSH20 0xFFFFFFFFFFFFFFFFFFFFFFFFFFFFFFFFFFFFFFFF AND SWAP2 POP PUSH0 PUSH1 0x64 PUSH1 0xA PUSH2 0x400 PUSH2 0x22A JUMP JUMPDEST PUSH2 0x40A SWAP2 SWAP1 PUSH2 0xAC9 JUMP JUMPDEST PUSH2 0x414 SWAP2 SWAP1 PUSH2 0xB0A JUMP JUMPDEST SWAP1 POP PUSH0 PUSH1 0x64 PUSH1 0x5A PUSH2 0x423 PUSH2 0x22A JUMP JUMPDEST PUSH2 0x42D SWAP2 SWAP1 PUSH2 0xAC9 JUMP JUMPDEST PUSH2 0x437 SWAP2 SWAP1 PUSH2 0xB0A JUMP JUMPDEST SWAP1 POP DUP4 PUSH20 0xFFFFFFFFFFFFFFFFFFFFFFFFFFFFFFFFFFFFFFFF AND PUSH2 0x8FC DUP3 SWAP1 DUP2 ISZERO MUL SWAP1 PUSH1 0x40 MLOAD PUSH0 PUSH1 0x40 MLOAD DUP1 DUP4 SUB DUP2 DUP6 DUP9 DUP9 CALL SWAP4 POP POP POP POP ISZERO DUP1 ISZERO PUSH2 0x47C JUMPI RETURNDATASIZE PUSH0 DUP1 RETURNDATACOPY RETURNDATASIZE PUSH0 REVERT JUMPDEST POP PUSH1 0x1 PUSH0 SWAP1 SLOAD SWAP1 PUSH2 0x100 EXP SWAP1 DIV PUSH20 0xFFFFFFFFFFFFFFFFFFFFFFFFFFFFFFFFFFFFFFFF AND PUSH20 0xFFFFFFFFFFFFFFFFFFFFFFFFFFFFFFFFFFFFFFFF AND PUSH2 0x8FC DUP4 SWAP1 DUP2 ISZERO MUL SWAP1 PUSH1 0x40 MLOAD PUSH0 PUSH1 0x40 MLOAD DUP1 DUP4 SUB DUP2 DUP6 DUP9 DUP9 CALL SWAP4 POP POP POP POP ISZERO DUP1 ISZERO PUSH2 0x4E1 JUMPI RETURNDATASIZE PUSH0 DUP1 RETURNDATACOPY RETURNDATASIZE PUSH0 REVERT JUMPDEST POP PUSH0 PUSH8 0xFFFFFFFFFFFFFFFF DUP2 GT ISZERO PUSH2 0x4FC JUMPI PUSH2 0x4FB PUSH2 0xB3A JUMP JUMPDEST JUMPDEST PUSH1 0x40 MLOAD SWAP1 DUP1 DUP3 MSTORE DUP1 PUSH1 0x20 MUL PUSH1 0x20 ADD DUP3 ADD PUSH1 0x40 MSTORE DUP1 ISZERO PUSH2 0x52A JUMPI DUP2 PUSH1 0x20 ADD PUSH1 0x20 DUP3 MUL DUP1 CALLDATASIZE DUP4 CALLDATACOPY DUP1 DUP3 ADD SWAP2 POP POP SWAP1 POP JUMPDEST POP PUSH0 SWAP1 DUP1 MLOAD SWAP1 PUSH1 0x20 ADD SWAP1 PUSH2 0x53F SWAP3 SWAP2 SWAP1 PUSH2 0x5B8 JUMP JUMPDEST POP POP POP POP POP POP JUMP JUMPDEST PUSH0 PREVRANDAO TIMESTAMP PUSH0 DUP1 SLOAD SWAP1 POP PUSH1 0x40 MLOAD PUSH1 0x20 ADD PUSH2 0x561 SWAP4 SWAP3 SWAP2 SWAP1 PUSH2 0xB87 JUMP JUMPDEST PUSH1 0x40 MLOAD PUSH1 0x20 DUP2 DUP4 SUB SUB DUP2 MSTORE SWAP1 PUSH1 0x40 MSTORE DUP1 MLOAD SWAP1 PUSH1 0x20 ADD KECCAK256 PUSH0 SHR SWAP1 POP SWAP1 JUMP JUMPDEST PUSH0 DUP2 DUP2 SLOAD DUP2 LT PUSH2 0x58C JUMPI PUSH0 DUP1 REVERT JUMPDEST SWAP1 PUSH0 MSTORE PUSH1 0x20 PUSH0 KECCAK256 ADD PUSH0 SWAP2 POP SLOAD SWAP1 PUSH2 0x100 EXP SWAP1 DIV PUSH20 0xFFFFFFFFFFFFFFFFFFFFFFFFFFFFFFFFFFFFFFFF AND DUP2 JUMP JUMPDEST DUP3 DUP1 SLOAD DUP3 DUP3 SSTORE SWAP1 PUSH0 MSTORE PUSH1 0x20 PUSH0 KECCAK256 SWAP1 DUP2 ADD SWAP3 DUP3 ISZERO PUSH2 0x62E JUMPI SWAP2 PUSH1 0x20 MUL DUP3 ADD JUMPDEST DUP3 DUP2 GT ISZERO PUSH2 0x62D JUMPI DUP3 MLOAD DUP3 PUSH0 PUSH2 0x100 EXP DUP2 SLOAD DUP2 PUSH20 0xFFFFFFFFFFFFFFFFFFFFFFFFFFFFFFFFFFFFFFFF MUL NOT AND SWAP1 DUP4 PUSH20 0xFFFFFFFFFFFFFFFFFFFFFFFFFFFFFFFFFFFFFFFF AND MUL OR SWAP1 SSTORE POP SWAP2 PUSH1 0x20 ADD SWAP2 SWAP1 PUSH1 0x1 ADD SWAP1 PUSH2 0x5D6 JUMP JUMPDEST JUMPDEST POP SWAP1 POP PUSH2 0x63B SWAP2 SWAP1 PUSH2 0x63F JUMP JUMPDEST POP SWAP1 JUMP JUMPDEST JUMPDEST DUP1 DUP3 GT ISZERO PUSH2 0x656 JUMPI PUSH0 DUP2 PUSH0 SWAP1 SSTORE POP PUSH1 0x1 ADD PUSH2 0x640 JUMP JUMPDEST POP SWAP1 JUMP JUMPDEST PUSH0 DUP3 DUP3 MSTORE PUSH1 0x20 DUP3 ADD SWAP1 POP SWAP3 SWAP2 POP POP JUMP JUMPDEST PUSH32 0x4D6F7265206F72206C657373207468616E20302E31206574686572206973206E PUSH0 DUP3 ADD MSTORE PUSH32 0x6F7420616C6C6F77656400000000000000000000000000000000000000000000 PUSH1 0x20 DUP3 ADD MSTORE POP JUMP JUMPDEST PUSH0 PUSH2 0x6C4 PUSH1 0x2A DUP4 PUSH2 0x65A JUMP JUMPDEST SWAP2 POP PUSH2 0x6CF DUP3 PUSH2 0x66A JUMP JUMPDEST PUSH1 0x40 DUP3 ADD SWAP1 POP SWAP2 SWAP1 POP JUMP JUMPDEST PUSH0 PUSH1 0x20 DUP3 ADD SWAP1 POP DUP2 DUP2 SUB PUSH0 DUP4 ADD MSTORE PUSH2 0x6F1 DUP2 PUSH2 0x6B8 JUMP JUMPDEST SWAP1 POP SWAP2 SWAP1 POP JUMP JUMPDEST PUSH32 0x4D616E616765722063616E6E6F7420706172746963697061746520696E207468 PUSH0 DUP3 ADD MSTORE PUSH32 0x65206C6F74746572790000000000000000000000000000000000000000000000 PUSH1 0x20 DUP3 ADD MSTORE POP JUMP JUMPDEST PUSH0 PUSH2 0x752 PUSH1 0x29 DUP4 PUSH2 0x65A JUMP JUMPDEST SWAP2 POP PUSH2 0x75D DUP3 PUSH2 0x6F8 JUMP JUMPDEST PUSH1 0x40 DUP3 ADD SWAP1 POP SWAP2 SWAP1 POP JUMP JUMPDEST PUSH0 PUSH1 0x20 DUP3 ADD SWAP1 POP DUP2 DUP2 SUB PUSH0 DUP4 ADD MSTORE PUSH2 0x77F DUP2 PUSH2 0x746 JUMP JUMPDEST SWAP1 POP SWAP2 SWAP1 POP JUMP JUMPDEST PUSH0 DUP2 SWAP1 POP SWAP2 SWAP1 POP JUMP JUMPDEST PUSH2 0x798 DUP2 PUSH2 0x786 JUMP JUMPDEST DUP3 MSTORE POP POP JUMP JUMPDEST PUSH0 PUSH1 0x20 DUP3 ADD SWAP1 POP PUSH2 0x7B1 PUSH0 DUP4 ADD DUP5 PUSH2 0x78F JUMP JUMPDEST SWAP3 SWAP2 POP POP JUMP JUMPDEST PUSH0 DUP1 REVERT JUMPDEST PUSH2 0x7C4 DUP2 PUSH2 0x786 JUMP JUMPDEST DUP2 EQ PUSH2 0x7CE JUMPI PUSH0 DUP1 REVERT JUMPDEST POP JUMP JUMPDEST PUSH0 DUP2 CALLDATALOAD SWAP1 POP PUSH2 0x7DF DUP2 PUSH2 0x7BB JUMP JUMPDEST SWAP3 SWAP2 POP POP JUMP JUMPDEST PUSH0 PUSH1 0x20 DUP3 DUP5 SUB SLT ISZERO PUSH2 0x7FA JUMPI PUSH2 0x7F9 PUSH2 0x7B7 JUMP JUMPDEST JUMPDEST PUSH0 PUSH2 0x807 DUP5 DUP3 DUP6 ADD PUSH2 0x7D1 JUMP JUMPDEST SWAP2 POP POP SWAP3 SWAP2 POP POP JUMP JUMPDEST PUSH0 PUSH20 0xFFFFFFFFFFFFFFFFFFFFFFFFFFFFFFFFFFFFFFFF DUP3 AND SWAP1 POP SWAP2 SWAP1 POP JUMP JUMPDEST PUSH0 PUSH2 0x839 DUP3 PUSH2 0x810 JUMP JUMPDEST SWAP1 POP SWAP2 SWAP1 POP JUMP JUMPDEST PUSH2 0x849 DUP2 PUSH2 0x82F JUMP JUMPDEST DUP3 MSTORE POP POP JUMP JUMPDEST PUSH0 PUSH1 0x20 DUP3 ADD SWAP1 POP PUSH2 0x862 PUSH0 DUP4 ADD DUP5 PUSH2 0x840 JUMP JUMPDEST SWAP3 SWAP2 POP POP JUMP JUMPDEST PUSH32 0x4F6E6C79206D616E616765722063616E2063616C6C2073656520746865206261 PUSH0 DUP3 ADD MSTORE PUSH32 0x6C616E6365000000000000000000000000000000000000000000000000000000 PUSH1 0x20 DUP3 ADD MSTORE POP JUMP JUMPDEST PUSH0 PUSH2 0x8C2 PUSH1 0x25 DUP4 PUSH2 0x65A JUMP JUMPDEST SWAP2 POP PUSH2 0x8CD DUP3 PUSH2 0x868 JUMP JUMPDEST PUSH1 0x40 DUP3 ADD SWAP1 POP SWAP2 SWAP1 POP JUMP JUMPDEST PUSH0 PUSH1 0x20 DUP3 ADD SWAP1 POP DUP2 DUP2 SUB PUSH0 DUP4 ADD MSTORE PUSH2 0x8EF DUP2 PUSH2 0x8B6 JUMP JUMPDEST SWAP1 POP SWAP2 SWAP1 POP JUMP JUMPDEST PUSH32 0x4F6E6C79206D616E616765722063616E2063616C6C207468652066756E637469 PUSH0 DUP3 ADD MSTORE PUSH32 0x6F6E000000000000000000000000000000000000000000000000000000000000 PUSH1 0x20 DUP3 ADD MSTORE POP JUMP JUMPDEST PUSH0 PUSH2 0x950 PUSH1 0x22 DUP4 PUSH2 0x65A JUMP JUMPDEST SWAP2 POP PUSH2 0x95B DUP3 PUSH2 0x8F6 JUMP JUMPDEST PUSH1 0x40 DUP3 ADD SWAP1 POP SWAP2 SWAP1 POP JUMP JUMPDEST PUSH0 PUSH1 0x20 DUP3 ADD SWAP1 POP DUP2 DUP2 SUB PUSH0 DUP4 ADD MSTORE PUSH2 0x97D DUP2 PUSH2 0x944 JUMP JUMPDEST SWAP1 POP SWAP2 SWAP1 POP JUMP JUMPDEST PUSH32 0x54686572652073686F756C64206265206174206C65617374203320706C617965 PUSH0 DUP3 ADD MSTORE PUSH32 0x727320746F207069636B207468652077696E6E65720000000000000000000000 PUSH1 0x20 DUP3 ADD MSTORE POP JUMP JUMPDEST PUSH0 PUSH2 0x9DE PUSH1 0x35 DUP4 PUSH2 0x65A JUMP JUMPDEST SWAP2 POP PUSH2 0x9E9 DUP3 PUSH2 0x984 JUMP JUMPDEST PUSH1 0x40 DUP3 ADD SWAP1 POP SWAP2 SWAP1 POP JUMP JUMPDEST PUSH0 PUSH1 0x20 DUP3 ADD SWAP1 POP DUP2 DUP2 SUB PUSH0 DUP4 ADD MSTORE PUSH2 0xA0B DUP2 PUSH2 0x9D2 JUMP JUMPDEST SWAP1 POP SWAP2 SWAP1 POP JUMP JUMPDEST PUSH32 0x4E487B7100000000000000000000000000000000000000000000000000000000 PUSH0 MSTORE PUSH1 0x12 PUSH1 0x4 MSTORE PUSH1 0x24 PUSH0 REVERT JUMPDEST PUSH0 PUSH2 0xA49 DUP3 PUSH2 0x786 JUMP JUMPDEST SWAP2 POP PUSH2 0xA54 DUP4 PUSH2 0x786 JUMP JUMPDEST SWAP3 POP DUP3 PUSH2 0xA64 JUMPI PUSH2 0xA63 PUSH2 0xA12 JUMP JUMPDEST JUMPDEST DUP3 DUP3 MOD SWAP1 POP SWAP3 SWAP2 POP POP JUMP JUMPDEST PUSH32 0x4E487B7100000000000000000000000000000000000000000000000000000000 PUSH0 MSTORE PUSH1 0x32 PUSH1 0x4 MSTORE PUSH1 0x24 PUSH0 REVERT JUMPDEST PUSH32 0x4E487B7100000000000000000000000000000000000000000000000000000000 PUSH0 MSTORE PUSH1 0x11 PUSH1 0x4 MSTORE PUSH1 0x24 PUSH0 REVERT JUMPDEST PUSH0 PUSH2 0xAD3 DUP3 PUSH2 0x786 JUMP JUMPDEST SWAP2 POP PUSH2 0xADE DUP4 PUSH2 0x786 JUMP JUMPDEST SWAP3 POP DUP3 DUP3 MUL PUSH2 0xAEC DUP2 PUSH2 0x786 JUMP JUMPDEST SWAP2 POP DUP3 DUP3 DIV DUP5 EQ DUP4 ISZERO OR PUSH2 0xB03 JUMPI PUSH2 0xB02 PUSH2 0xA9C JUMP JUMPDEST JUMPDEST POP SWAP3 SWAP2 POP POP JUMP JUMPDEST PUSH0 PUSH2 0xB14 DUP3 PUSH2 0x786 JUMP JUMPDEST SWAP2 POP PUSH2 0xB1F DUP4 PUSH2 0x786 JUMP JUMPDEST SWAP3 POP DUP3 PUSH2 0xB2F JUMPI PUSH2 0xB2E PUSH2 0xA12 JUMP JUMPDEST JUMPDEST DUP3 DUP3 DIV SWAP1 POP SWAP3 SWAP2 POP POP JUMP JUMPDEST PUSH32 0x4E487B7100000000000000000000000000000000000000000000000000000000 PUSH0 MSTORE PUSH1 0x41 PUSH1 0x4 MSTORE PUSH1 0x24 PUSH0 REVERT JUMPDEST PUSH0 DUP2 SWAP1 POP SWAP2 SWAP1 POP JUMP JUMPDEST PUSH2 0xB81 PUSH2 0xB7C DUP3 PUSH2 0x786 JUMP JUMPDEST PUSH2 0xB67 JUMP JUMPDEST DUP3 MSTORE POP POP JUMP JUMPDEST PUSH0 PUSH2 0xB92 DUP3 DUP7 PUSH2 0xB70 JUMP JUMPDEST PUSH1 0x20 DUP3 ADD SWAP2 POP PUSH2 0xBA2 DUP3 DUP6 PUSH2 0xB70 JUMP JUMPDEST PUSH1 0x20 DUP3 ADD SWAP2 POP PUSH2 0xBB2 DUP3 DUP5 PUSH2 0xB70 JUMP JUMPDEST PUSH1 0x20 DUP3 ADD SWAP2 POP DUP2 SWAP1 POP SWAP5 SWAP4 POP POP POP POP JUMP INVALID LOG2 PUSH5 0x6970667358 0x22 SLT KECCAK256 SELFDESTRUCT SGT 0xE6 PUSH13 0xF2A8163809D2CC9595BE3C1ECA 0xDC 0xC6 ORIGIN DUP11 PUSH20 0xF0DA17D0DC8EA504FFB364736F6C634300081600 CALLER "
				},
				"gasEstimates": {
					"creation": {
						"codeDepositCost": "613000",
						"executionCost": "24908",
						"totalCost": "637908"
					},
					"external": {
						"getBalance()": "2594",
						"pickWinner()": "infinite",
						"players(uint256)": "4987",
						"random()": "infinite"
					}
				},
				"methodIdentifiers": {
					"getBalance()": "12065fe0",
					"pickWinner()": "5d495aea",
					"players(uint256)": "f71d96cb",
					"random()": "5ec01e4d"
				}
			},
			"storageLayout": {
				"storage": [
					{
						"astId": 4,
						"contract": "contracts/lottery.sol:Lottery",
						"label": "players",
						"offset": 0,
						"slot": "0",
						"type": "t_array(t_address_payable)dyn_storage"
					},
					{
						"astId": 6,
						"contract": "contracts/lottery.sol:Lottery",
						"label": "manager",
						"offset": 0,
						"slot": "1",
						"type": "t_address"
					}
				],
				"types": {
					"t_address": {
						"encoding": "inplace",
						"label": "address",
						"numberOfBytes": "20"
					},
					"t_address_payable": {
						"encoding": "inplace",
						"label": "address payable",
						"numberOfBytes": "20"
					},
					"t_array(t_address_payable)dyn_storage": {
						"base": "t_address_payable",
						"encoding": "dynamic_array",
						"label": "address payable[]",
						"numberOfBytes": "32"
					}
				}
			},
			"userdoc": {
				"kind": "user",
				"methods": {},
				"version": 1
			}
		}
	}
}